:100000000C9435000C945D000C945D000C945D0024
:100010000C945D000C945D000C945D000C945D00EC
:100020000C945D000C945D000C945D000C945D00DC
:100030000C945D000C945D000C945D000C945D00CC
:100040000C9421020C945D000C94EF010C94C901F6
:100050000C945D000C945D000C945D000C945D00AC
:100060000C945D000C945D005D0311241FBECFEF66
:10007000D8E0DEBFCDBF11E0A0E0B1E0EEE2F7E0F6
:1000800002C005900D92AA32B107D9F722E0AAE288
:10009000B1E001C01D92A331B207E1F710E0C5E362
:1000A000D0E004C02197FE010E948A03C433D10727
:1000B000C9F70E946B020C9495030C940000CF9238
:1000C000DF92EF92FF920F931F93CF93DF936C0118
:1000D0007A018B01C0E0D0E0CE15DF0589F0D801B0
:1000E0006D918D01D601ED91FC910190F081E02D93
:1000F000C6010995892B11F47E0102C02196ECCF2F
:10010000C701DF91CF911F910F91FF90EF90DF908A
:10011000CF900895FC01918D828D981761F0828DAA
:10012000DF01A80FB11D5D968C91928D9F5F9F732B
:10013000928F90E008958FEF9FEF0895FC01918DCD
:10014000828D981731F0828DE80FF11D858D90E03A
:1001500008958FEF9FEF0895FC01918D228D892FD7
:1001600090E0805C9F4F821B91098F7399270895BF
:1001700086E791E00E94AC0021E0892B09F420E0A1
:10018000822F0895FC01848DDF01A80FB11DA35AB1
:10019000BF4F2C91848D90E001968F739927848FA7
:1001A000A689B7892C93A089B1898C9180648C939E
:1001B000938D848D981306C00288F389E02D808189
:1001C0008F7D80830895EF92FF920F931F93CF93BB
:1001D000DF93EC0181E0888F9B8D8C8D981305C097
:1001E000E889F989808185FD24C0F62E0B8D10E009
:1001F0000F5F1F4F0F731127E02E8C8DE8120CC07C
:100200000FB607FCFACFE889F989808185FFF5CF21
:10021000CE010E94C200F1CF8B8DFE01E80FF11DCF
:10022000E35AFF4FF0820B8FEA89FB89808180625D
:1002300007C0EE89FF896083E889F989808180643D
:10024000808381E090E0DF91CF911F910F91FF902B
:10025000EF900895CF93DF93EC01888D8823C9F048
:10026000EA89FB89808185FD05C0A889B9898C91BF
:1002700086FD0FC00FB607FCF5CF808185FFF2CF5A
:10028000A889B9898C9185FFEDCFCE010E94C2006B
:10029000E7CFDF91CF91089580E090E0892B29F09E
:1002A0000E94B80081110C94000008953FB7F894A3
:1002B00080912F0190913001A0913101B0913201D4
:1002C00026B5A89B05C02F3F19F00196A11DB11DB1
:1002D0003FBFBA2FA92F982F8827820F911DA11DEC
:1002E000B11DBC01CD0142E0660F771F881F991F29
:1002F0004A95D1F708958F929F92AF92BF92CF9275
:10030000DF92EF92FF926B017C010E9456014B013C
:100310005C01C114D104E104F104F1F00E94560122
:10032000DC01CB0188199909AA09BB09883E9340D1
:10033000A105B10570F321E0C21AD108E108F10866
:1003400088EE880E83E0981EA11CB11CC114D10454
:10035000E104F10419F7DDCFFF90EF90DF90CF902B
:10036000BF90AF909F908F900895009769F0FC0127
:1003700001900020E9F73197AF01481B590BBC01F0
:1003800086E791E00C945F0080E090E008950E9481
:1003900090031F920F920FB60F9211242F933F9349
:1003A0004F935F936F937F938F939F93AF93BF937D
:1003B000EF93FF9386E791E00E94C200FF91EF91D7
:1003C000BF91AF919F918F917F916F915F914F916D
:1003D0003F912F910F900FBE0F901F9018951F9275
:1003E0000F920FB60F9211242F938F939F93EF9339
:1003F000FF93E0918601F09187018081E0918C016B
:10040000F0918D0182FD12C0908180918F018F5FEC
:100410008F7320919001821751F0E0918F01F0E0ED
:10042000EA58FE4F958F80938F0101C08081FF9124
:10043000EF919F918F912F910F900FBE0F901F9072
:1004400018951F920F920FB60F9211242F933F937E
:100450008F939F93AF93BF9380912B0190912C0129
:10046000A0912D01B0912E0130912A0123E0230F9C
:100470002D3720F40196A11DB11D05C026E8230FDC
:100480000296A11DB11D20932A0180932B01909308
:100490002C01A0932D01B0932E0180912F019091FA
:1004A0003001A0913101B09132010196A11DB11D21
:1004B00080932F0190933001A0933101B0933201CA
:1004C000BF91AF919F918F913F912F910F900FBE50
:1004D0000F901F901895789484B5826084BD84B580
:1004E000816084BD85B5826085BD85B5816085BD2F
:1004F00080916E00816080936E00109281008091E7
:10050000810082608093810080918100816080936E
:100510008100809180008160809380008091B10093
:1005200084608093B1008091B00081608093B000BE
:1005300080917A00846080937A0080917A00826052
:1005400080937A0080917A00816080937A00809114
:100550007A00806880937A001092C100E091860151
:10056000F091870182E08083E0918201F091830124
:100570001082E0918401F091850187E680831092DA
:100580008E01E0918A01F0918B0186E08083E091F9
:100590008801F0918901808180618083E0918801E8
:1005A000F0918901808188608083E0918801F091D9
:1005B0008901808180688083E0918801F0918901C0
:1005C00080818F7D808386E791E00E942A0105E388
:1005D00011E08FE3D82E9FE3E92EF12C86E791E01E
:1005E0000E94AC00181619060CF064C01092750138
:1005F00010927401F8018D2D11928A95E9F76FE33D
:1006000070E080E090E00E947B0186E791E00E942C
:10061000AC00803491052CF4909334018093330125
:1006200004C0F0923401E092330180913301909143
:1006300034019C012150310930933401209333015E
:10064000892BC1F0C0917401D0917501CE01019642
:10065000909375018093740186E791E00E948A006F
:10066000CB5CDE4F888363E070E080E090E00E9426
:100670007B01DBCF80E191E00E94B5016FE370E088
:1006800080E090E00E947B0187E291E00E94B5014A
:1006900085E391E00E94B50184E291E00E94B501FA
:1006A0006FE370E080E090E00E947B0186E791E0DC
:1006B0000E942A010E944C0191CFE6E7F1E01382EB
:1006C000128288EE93E0A0E0B0E084839583A68355
:1006D000B78384E091E09183808385EC90E09587F7
:1006E000848784EC90E09787868780EC90E0918BFC
:1006F000808B81EC90E0938B828B82EC90E0958BE9
:10070000848B86EC90E0978B868B118E128E138EE5
:10071000148E0895EE0FFF1F0590F491E02D0994BB
:0E07200081E090E0F8940C949503F894FFCFDC
:10072E0000000000E3005F00AC008A009E002A017A
:10073E00262641726475696E6F20726563656976EF
:0A074E0065643A20252500262600E8
:00000001FF
