:100000000C9463000C948B000C948B000C94E20312
:100010000C94E2030C94E2030C948B000C948B0080
:100020000C948B000C948B000C948B000C948B0024
:100030000C948B000C948B000C948B000C948B0014
:100040000C9498030C948B000C9466030C9440035E
:100050000C948B000C948B000C948B000C948B00F4
:100060000C948B000C948B000000000024002700EF
:100070002A0000000008000201000003040700003D
:1000800000000000000000000000250028002B00F8
:1000900000000000230026002900040404040404D6
:1000A0000404020202020202030303030303010227
:1000B00004081020408001020408102001020408F6
:1000C00010205C043E0711241FBECFEFD8E0DEBF36
:1000D000CDBF11E0A0E0B1E0E0E1FFE002C005909B
:1000E0000D92A83AB107D9F723E0A8EAB1E001C020
:1000F0001D92A733B207E1F710E0C2E6D0E004C0DA
:100100002197FE010E947007C136D107C9F70E94EE
:1001100007050C947B070C9400000895CF92DF92A2
:10012000EF92FF920F931F93CF93DF936C017A01AD
:100130008B01C0E0D0E0CE15DF0589F0D8016D91CC
:100140008D01D601ED91FC910190F081E02DC60169
:100150000995892B11F47E0102C02196ECCFC701CD
:10016000DF91CF911F910F91FF90EF90DF90CF9093
:100170000895FC01918D828D981761F0828DDF01C9
:10018000A80FB11D5D968C91928D9F5F9F73928F8A
:1001900090E008958FEF9FEF0895FC01918D828D7F
:1001A000981731F0828DE80FF11D858D90E008954C
:1001B0008FEF9FEF0895FC01918D228D892F90E0A4
:1001C000805C9F4F821B91098F73992708958BE75D
:1001D00092E00E94DB0021E0892B09F420E0822FCD
:1001E0000895FC01848DDF01A80FB11DA35ABF4FF4
:1001F0002C91848D90E001968F739927848FA68926
:10020000B7892C93A089B1898C9180648C93938D4C
:10021000848D981306C00288F389E02D80818F7D3C
:1002200080830895EF92FF920F931F93CF93DF93F4
:10023000EC0181E0888F9B8D8C8D981305C0E88937
:10024000F989808185FD24C0F62E0B8D10E00F5FAB
:100250001F4F0F731127E02E8C8DE8120CC00FB6C4
:1002600007FCFACFE889F989808185FFF5CFCE01B7
:100270000E94F100F1CF8B8DFE01E80FF11DE35AD2
:10028000FF4FF0820B8FEA89FB898081806207C073
:10029000EE89FF896083E889F989808180648083A1
:1002A00081E090E0DF91CF911F910F91FF90EF904F
:1002B0000895CF93DF93EC01888D8823C9F0EA89F4
:1002C000FB89808185FD05C0A889B9898C9186FD4F
:1002D0000FC00FB607FCF5CF808185FFF2CFA8894C
:1002E000B9898C9185FFEDCFCE010E94F100E7CF57
:1002F000DF91CF91089580E090E0892B29F00E9452
:10030000E70081110C940000089590E0FC01EE5884
:10031000FF4F3491FC01E255FF4F2491FC01E6565A
:10032000FF4FE491EE2309F43BC0332339F133301E
:1003300091F038F43130A9F0323001F584B58F7D79
:1003400012C0373091F03830A1F03430B9F48091D8
:1003500080008F7D03C0809180008F778093800024
:100360000DC084B58F7784BD09C08091B0008F77B0
:1003700003C08091B0008F7D8093B000F0E0EE0F5D
:10038000FF1FEA57FF4FA591B4918FB7F894EC91F6
:10039000611103C020952E2301C02E2B2C938FBFFB
:1003A0000895CF93DF9390E0FC01E255FF4F249135
:1003B000FC01E656FF4F8491882361F190E0880F9D
:1003C000991FFC01E859FF4FC591D491FC01EA57F0
:1003D000FF4FA591B491611109C09FB7F89488812E
:1003E000209582238883EC912E230BC0623061F428
:1003F0009FB7F8943881822F809583238883EC916E
:100400002E2B2C939FBF06C08FB7F894E8812E2B1C
:1004100028838FBFDF91CF9108953FB7F8948091E3
:10042000ED019091EE01A091EF01B091F00126B5A0
:10043000A89B05C02F3F19F00196A11DB11D3FBF1C
:10044000BA2FA92F982F8827820F911DA11DB11DAA
:10045000BC01CD0142E0660F771F881F991F4A95A6
:10046000D1F708958F929F92AF92BF92CF92DF9271
:10047000EF92FF926B017C010E940D024B015C0127
:10048000C114D104E104F104F1F00E940D02DC0179
:10049000CB0188199909AA09BB09883E9340A10597
:1004A000B10570F321E0C21AD108E108F10888EE25
:1004B000880E83E0981EA11CB11CC114D104E10474
:1004C000F10419F7DDCFFF90EF90DF90CF90BF9050
:1004D000AF909F908F9008952091F3013091F40197
:1004E0002817390771F49091F1018091F201981762
:1004F00041F0E091F101F0E0E855FE4F808190E09D
:1005000008958FEF9FEF08951F93CF93DF93DC0142
:100510005C962D913C915D972115310539F481E070
:1005200090E013969C938E9312973DC05196ED9157
:10053000FC91529750969C915097892F80951FB7A8
:100540005E964C915E9741FB772770F941FD60956F
:10055000F8944081772311F0492B01C04823408350
:10056000E9012197F1F748E0508160FF02C0592B63
:1005700001C058235083E9012197F1F76695415056
:1005800099F7772321F090818923808303C08081AC
:10059000982B90831FBF5C968D919C915D970197DE
:1005A000F1F721E030E0C901DF91CF911F9108956B
:1005B0002091F3013091F4012817390771F48091EB
:1005C000F2012091F10190E0805C9F4F821B910924
:1005D00060E470E00E944807089580E090E008958C
:1005E0002091F3013091F40128173907B9F4909163
:1005F000F1018091F201981789F0E091F101F0E0AA
:10060000E855FE4F80812091F10130E02F5F3F4F90
:100610002F7333272093F10190E008958FEF9FEF20
:100620000895E091F301F091F401E817F90769F4F6
:10063000A389B4899C918589809589238C93109294
:10064000F4011092F30181E0089580E008950E9482
:1006500076076115710579F0FB0101900020E9F73B
:100660003197AF01461B570BDC01ED91FC910280E5
:10067000F381E02D099480E090E008950C94290323
:100680001F920F920FB60F9211242F933F934F9307
:100690005F936F937F938F939F93AF93BF93EF93EA
:1006A000FF938BE792E00E94F100FF91EF91BF91E1
:1006B000AF919F918F917F916F915F914F913F91FA
:1006C0002F910F900FBE0F901F9018951F920F92B1
:1006D0000FB60F9211242F938F939F93EF93FF9355
:1006E000E0918B02F0918C028081E0919102F09177
:1006F000920282FD12C09081809194028F5F8F736D
:1007000020919502821751F0E0919402F0E0E558B3
:10071000FD4F958F8093940201C08081FF91EF91EE
:100720009F918F912F910F900FBE0F901F90189552
:100730001F920F920FB60F9211242F933F938F9316
:100740009F93AF93BF938091E9019091EA01A091AB
:10075000EB01B091EC013091E80123E0230F2D373C
:1007600020F40196A11DB11D05C026E8230F0296B5
:10077000A11DB11D2093E8018093E9019093EA0146
:10078000A093EB01B093EC018091ED019091EE010B
:10079000A091EF01B091F0010196A11DB11D8093D0
:1007A000ED019093EE01A093EF01B093F001BF91A2
:1007B000AF919F918F913F912F910F900FBE0F900E
:1007C0001F9018951F920F920FB60F9211242F931E
:1007D0003F934F935F936F937F938F939F93AF93C9
:1007E000BF93EF93FF93E091F301F091F401309701
:1007F00009F451C0968DA685B785858591FF04C003
:100800009C91892329F447C09C91892309F043C016
:10081000A389B4899C918589809589238C93868945
:1008200097890197F1F7608D718DA685B7855585FC
:1008300038E020E0CB010197F1F7822F90E0959509
:100840008795282F4C91452309F02068315091F766
:10085000868D81FD20958091F20190E001968F7345
:1008600099273091F101381749F0A091F201B0E0D9
:10087000A855BE4F2C938093F20103C0868D8160F2
:10088000868F828D938D0197F1F7A389B4899C910E
:100890008589892B8C93FF91EF91BF91AF919F91A7
:1008A0008F917F916F915F914F913F912F910F9019
:1008B0000FBE0F901F90189510927E0210927D022D
:1008C00088EE93E0A0E0B0E080937F0290938002F6
:1008D000A0938102B093820224E031E030937C0245
:1008E00020937B0225EC30E030938802209387022E
:1008F00024EC30E030938A022093890220EC30E02F
:1009000030938C0220938B0221EC30E030938E02E6
:1009100020938D0222EC30E03093900220938F02DE
:1009200026EC30E0309392022093910210929402D0
:1009300010929502109296021092970210921B0349
:1009400010921A0380931C0390931D03A0931E031F
:10095000B0931F0384E191E09093190380931803EF
:1009600010922F0310922E03109231031092300335
:100970001092330310923203109235031092340315
:10098000609136036E7F6D7F60933603669561706C
:1009900081E068278CE00E94850161E08CE00E9484
:1009A000D101EAEBF0E0E491E0932803E6EAF0E01D
:1009B000E491F0E0EE0FFF1FEA57FF4F859194910D
:1009C00090932A038093290360E08BE00E94D10179
:1009D0008091360381FD04C061E08BE00E948501B7
:1009E0008BE080932403E9EBF0E0E491E0932503AE
:1009F000E5EAF0E0E491F0E0EE0FFF1FE057FF4F73
:100A00008591949190932703809326030895789479
:100A100084B5826084BD84B5816084BD85B5826003
:100A200085BD85B5816085BD80916E0081608093B4
:100A30006E0010928100809181008260809381001D
:100A4000809181008160809381008091800081602D
:100A5000809380008091B10084608093B100809188
:100A6000B00081608093B00080917A0084608093B0
:100A70007A0080917A00826080937A0080917A0077
:100A8000816080937A0080917A00806880937A00F8
:100A90001092C10060E08BE00E94D10161E08CE027
:100AA0000E94D1011092330310923203109231034D
:100AB0001092300310922F0310922E0385E690E0DF
:100AC000909335038093340390912403963108F07A
:100AD00057C021E230E030932F0320932E0323E60A
:100AE00030E0309331032093300322E430E0309340
:100AF00033032093320320916800983050F031E0A6
:100B00009E3008F430E081E001C0880F3A95EAF7A2
:100B100001C084E0822B80936800983038F09E30CA
:100B200040F0963148F020E030E008C02DE630E09B
:100B300005C02BE630E002C02CE630E030932C03F9
:100B400020932B03983030F481E001C0880F9A95F0
:100B5000EAF70EC0292F30E09E3018F428503109F2
:100B600002C02E50310981E001C0880F2A95EAF7B2
:100B700080932D0380913403909135030197F1F711
:100B80008091320390913303892B21F18091F301FD
:100B90009091F40123E088319207E1F0009711F081
:100BA0000E941103809136038E7F8093360310924A
:100BB000F2011092F10188E193E09093F4018093A7
:100BC000F301E0912B03F0912C03908180912D0390
:100BD000892B8083E0918B02F0918C0282E08083EC
:100BE000E0918702F09188021082E0918902F091F1
:100BF0008A0280E1808310929302E0918F02F0914B
:100C0000900286E08083E0918D02F0918E028081D7
:100C100080618083E0918D02F0918E0280818860F6
:100C20008083E0918D02F0918E02808180688083C4
:100C3000E0918D02F0918E0280818F7D80838BE721
:100C400092E00E9459018AE3E82E82E0F82E9FE3A9
:100C5000B92E0FE310E027EFC22E21E0D22E88E15B
:100C600093E00E94D802181619060CF07EC010926C
:100C70007A0210927902F7012B2D11922A95E9F749
:100C80006FE370E080E090E00E94320288E193E040
:100C90000E94D802803491052CF4909339028093FD
:100CA000380204C010933902009338028091380250
:100CB000909139029C0121503109309339022093DF
:100CC0003802892BC1F0C0917902D0917A02CE010D
:100CD000019690937A028093790288E193E00E94D2
:100CE000F002C65CDD4F888363E070E080E090E056
:100CF0000E943202DBCF60E271E08BE792E00E945B
:100D00003E036AE372E08BE792E00E9429036CE302
:100D100071E08BE792E00E9429036FE371E088E1C4
:100D200093E00E943E036FE370E080E090E00E9459
:100D3000320266E571E088E193E00E943E036AE3D7
:100D400072E088E193E00E943E0363E571E088E190
:100D500093E00E943E036FE370E080E090E00E9429
:100D600032028BE792E00E9459018BE792E00E94E9
:100D7000DB00181619060CF07EC010923702109294
:100D80003602F6012B2D11922A95E9F76FE370E0F8
:100D900080E090E00E9432028BE792E00E94DB004C
:100DA000803491052CF49093F6018093F50104C0F2
:100DB0001093F6010093F5018091F5019091F601F1
:100DC0009C01215031093093F6012093F501892BC4
:100DD000C1F0C0913602D0913702CE0101969093B6
:100DE0003702809336028BE792E00E94B900C95027
:100DF000DE4F888363E070E080E090E00E94320282
:100E0000DBCF69E571E088E193E00E943E036FE388
:100E100070E080E090E00E94320266E571E088E1D7
:100E200093E00E943E0367EF71E088E193E00E9447
:100E30003E0363E571E088E193E00E943E036FE3C7
:100E400070E080E090E00E94320269E871E08BE798
:100E500092E00E943E0367EF71E08BE792E00E9410
:100E600029036CE371E08BE792E00E9429038BE792
:100E700092E00E9459010E947B01F1CE84E191E051
:100E8000909319038093180388E193E00C94110365
:100E900097FB072E16F4009407D077FD09D00E9427
:100EA0005C0707FC05D03EF4909581959F4F08950F
:100EB000709561957F4F0895AA1BBB1B51E107C038
:100EC000AA1FBB1FA617B70710F0A61BB70B881FDA
:100ED000991F5A95A9F780959095BC01CD01089569
:100EE000EE0FFF1F0590F491E02D099481E090E052
:100EF000F8940C947B0710E0C2E6D0E004C0FE0139
:100F00000E9470072196C336D107C9F7F894FFCF26
:100F10000000000012018E00DB00B900CD00590175
:100F20000000000084028E00D802F0026C028D00E6
:100F300052656365697665642066726F6D20416EE7
:100F400064726F6964206170703A20000D0A002697
:100F50002641726475696E6F207265636569766596
:100F6000643A2025250026260026265772697474C7
:100F7000656E2066726F6D207468652053657269B6
:100F8000616C4D6F6E69746F72206F662041726480
:100F900075696E6F3A20252500596F752068617656
:100FA000652073656E7420746F20416E64726F6982
:080FB00064206170703A20001A
:00000001FF
